S013000030355F54656D706C6174652E7372656311
S3150000000060070020E131000051300000DD310000C2
S31500000010DD310000DD310000DD310000DD310000A2
S31500000020000000000000000000000000DD310000BC
S31500000030DD31000000000000DD310000DD31000090
S31500000040392E000000000000000000000000000043
S31500000050000000000000000000000000000000009A
S31500000060000000000000000000000000000000008A
S31500000070000000000000000000000000000000007A
S31500000080000000000000000000000000000000006A
S31500000090000000000000000000000000000000005A
S315000000A0000000000000000000000000000000004A
S315000000B0000000000000000000000000000000003A
S315000000C0000000000000000000000000000000002A
S315000000D0000000000000000000000000000000001A
S315000000E0000000000000000000000000000000000A
S315000000F000000000000000000000000000000000FA
S3150000010000000000000000000000000000000000E9
S3150000011000000000000000000000000000000000D9
S3150000012000000000000000000000000000000000C9
S3150000013000000000000000000000000000000000B9
S3150000014000000000000000000000000000000000A9
S315000001500000000000000000000000000000000099
S315000001600000000000000000000000000000000089
S315000001700000000000000000000000000000000079
S315000001800000000000000000000000000000000069
S315000001900000000000000000000000000000000059
S315000001A00000000000000000000000000000000049
S315000001B00000000000000000000000000000000039
S315000001C0FFFFFFFFFFFFFFFFFFFFFFFFFFFFFFFF39
S315000001D0FFFFFFFFFFFFFFFFFFFFFFFFFFFFFFFF29
S315000001E0FFFFFFFFFFFFFFFFFFFFFFFFFFFFFFFF19
S315000001F0FFFFFFFFFFFFFFFFFFFFFFFFFFFFFFFF09
S3150000020010B5054C237833B9044B13B1044800E00C
S3150000021000BF0123237010BD28000020000000004D
S31500000220683D000008B5034B1BB10349034800E0D5
S3150000023000BF08BD000000002C000020683D000043
S31500000240F0B507260027234C83B040F20571102233
S31500000250204601F0C5FF40F2057120460DF1070268
S3150000026001F044FE9DF80750012DEED129462820C5
S3150000027002F0BAFE40F205711022204601F0B0FFEE
S3150000028040F2057120460DF1070201F02FFE9DF8A0
S315000002900730012B07D0B54027EA0507013ED4D227
S315000002A0384603B0F0BD40F205711022204601F039
S315000002B097FF40F2057120460DF1070201F016FE88
S315000002C09DF80730012BEED00123B3401F43FFB248
S315000002D0E4E700BFCC0000200C4B10B50C4C59686D
S315000002E0204601F06DFF042240F20571204601F020
S315000002F077FF084AD2F8D43123F0011323F44043A0
S3150000030043F00503C2F8D43110BD00BFD439000054
S31500000310CC0000200008084070B51C4E1C4C04227E
S3150000032040F20571304601F05BFF1A4DD4F8D42136
S3150000033001212A4042F00502C4F8D4211E2002F011
S3150000034053FE042240F20571304601F049FFD4F80D
S31500000350D4214FF47A712A4042F00402C4F8D42121
S31500000360142002F041FE40F205713046042201F0ED
S3150000037037FFD4F8D43101212B4043F00503C4F8EC
S31500000380D4311E20BDE8704002F02EBECC00002005
S3150000039000080840FE3FFEFF70B582B00646FFF734
S315000003A0BBFF102240F205713E4801F019FF40F2F2
S315000003B005713C480DF1070201F098FD9DF80730E4
S315000003C0012B6BD040F2E934364D05E0002C65D0A8
S315000003D001210A2002F008FE40F20571102228468B
S315000003E001F0FEFE40F2057128460DF1070201F00C
S315000003F07DFD9DF80730013C012BA4B2E6D140F209
S31500000400E934284D04E0002C48D00A2002F0ECFD27
S3150000041040F205711022284601F0E2FE40F2057115
S3150000042028460DF1070201F061FD9DF80710013C19
S315000004300129A4B2E7D0FFF703FF3070FFF700FFF2
S315000004407070FFF7FDFEB070FFF7FAFEF070FFF771
S31500000450F7FE03460422337140F20571114801F09C
S31500000460BFFE114A0121D2F8D431372023F00113FF
S3150000047023F4404343F00503C2F8D43102F0B4FD3F
S3150000048073783078B178F278184408443379104498
S31500000490C01AB0FA80F0400902B070BD002002B068
S315000004A070BD00BFCC00002000080840002240F2CA
S315000004B00C51014801F044BDCC000020012805D0B4
S315000004C0002240F20C51044801F03ABD024640F2C7
S315000004D00C51014801F034BDCC00002010B5194C78
S315000004E0012240F20D11204601F02AFD01210A20C9
S315000004F002F07AFD01224FF48671204601F020FDBC
S3150000050001210A2002F070FD01210A2002F06CFD93
S31500000510002240F20D11204601F012FD01210A20B1
S3150000052002F062FD01210A2002F05EFD4FF48671A1
S315000005302046002201F004FDBDE8104001210A20FA
S3150000054002F052BDCC00002010B5144C002240F23F
S315000005500D11204601F0F4FC01210A2002F044FDB1
S3150000056001224FF48671204601F0EAFC01210A209F
S3150000057002F03AFD01210A2002F036FD012240F286
S315000005800D11204601F0DCFC01210A2002F02CFDB1
S31500000590BDE8104001210A2002F026BDCC00002053
S315000005A070B500240646334D82B08023E3403342C3
S315000005B014BF0122002240F20D11284601F0C0FCB2
S315000005C001210A2002F010FD01224FF4867128460F
S315000005D001F0B6FC01210A2002F006FD01210A20E5
S315000005E002F002FD00224FF48671284601F0A8FCB5
S315000005F001210A2002F0F8FC013401210A2002F050
S31500000600F3FC082CD1D1012240F20D11194801F05A
S3150000061097FC01210A2002F0E7FC01210A2002F0E2
S31500000620E3FC01224FF48671124801F089FC012196
S315000006300A2002F0D9FC01210A2002F0D5FC0DF1B6
S31500000640070240F20D110B4801F050FC9DF80740DF
S315000006500022A4F10104B4FA84F44FF4867105482B
S3150000066001F06EFC640901210A2002F0BDFC20465F
S3150000067002B070BDCC000020F8B500274C4CFFF747
S315000006802DFF7820FFF78CFF28B9FFF789FF47F089
S31500000690B000FFF785FFFFF757FFFFF71FFF782032
S315000006A0FFF77EFF20B9FFF77BFF1020FFF778FFEB
S315000006B0FFF74AFFFFF712FF7820FFF771FF0546A5
S315000006C020B9FFF76DFF2846FFF76AFFFFF73CFFEB
S315000006D080262FE04020FFF763FF2846FFF760FFE4
S315000006E02A4640F20D11204601F02AFC01210A207B
S315000006F002F07AFC01224FF48671204601F020FCBC
S3150000070001210A2002F070FC01210A2002F06CFC93
S31500000710012240F20D11204601F012FC01210A20AF
S3150000072002F062FC01210A2002F05EFC731E13F047
S31500000730FF0637D0012240F20D11204601F000FCE1
S3150000074001210A2002F050FC01224FF48671204656
S3150000075001F0F6FB01210A2002F046FC01210A20E5
S3150000076002F042FC002240F20D11204601F0E8FBA7
S3150000077001210A2002F038FC01210A2002F034FC93
S3150000078000224FF48671204601F0DAFB01210A208F
S3150000079002F02AFC7820FFF703FF0546002899D0CF
S315000007A000229EE70137FFB2082F7FF468AFF8BD3D
S315000007B0CC0000202DE9F04F0138400083B0C3B2D1
S315000007C001F1FF3814464FEAC8080193FFF786FE89
S315000007D078205FFA88F8FFF7E3FE30B9FFF7E0FE0E
S315000007E0019B43F0B000FFF7DBFEFFF7ADFE4FEADB
S315000007F0181AFFF773FE78204AF0100AFFF7D0FEAA
S3150000080020B9FFF7CDFE5046FFF7CAFEFFF79CFE64
S31500000810FFF764FE7820FFF7C3FE08F0080820B94A
S31500000820FFF7BEFE4046FFF7BBFEFFF78DFE604EAC
S31500000830203CE4B206F108095E4D4FEA041B09EBC1
S31500000840041906EB0414012240F20D11284614F88F
S31500000850017B01F075FB01210A2002F0C5FB012294
S315000008604FF48671284601F06BFB01210A2002F045
S31500000870BBFB01210A2002F0B7FB002240F20D115A
S31500000880284601F05DFB01210A2002F0ADFB0121A3
S315000008900A2002F0A9FB00224FF48671284601F0D7
S315000008A04FFB0A20012102F09FFB7820FFF778FE1C
S315000008B028B94020FFF774FE3846FFF771FEFFF7B0
S315000008C043FE4C45BFD1FFF709FE7820FFF768FECF
S315000008D040B9FFF765FE0198013060F04F00C0B2E5
S315000008E0FFF75EFEFFF730FEFFF7F8FD7820FFF713
S315000008F057FE20B9FFF754FE5046FFF751FEFFF7AB
S3150000090023FEFFF7EBFD7820FFF74AFE20B9FFF73D
S3150000091047FE4046FFF744FEFFF716FE264B0BF157
S315000009200702244C16449B44012240F20D11204636
S3150000093016F8015F01F004FB01210A2002F054FBC6
S3150000094001224FF48671204601F0FAFA01210A20AD
S3150000095002F04AFB01210A2002F046FB002240F287
S315000009600D11204601F0ECFA01210A2002F03CFBB1
S3150000097001210A2002F038FB00224FF4867120463E
S3150000098001F0DEFA0A20012102F02EFB7820FFF7A3
S3150000099007FE28B94020FFF703FE2846FFF700FEB2
S315000009A0FFF7D2FD5E45BFD103B0BDE8F08F00BFB3
S315000009B044330000CC00002053330000F8B5154640
S315000009C092F9002062B106460F4600243919013417
S315000009D03046C9B2E4B2FFF7EDFE2A57002AF5D138
S315000009E0F8BD00BF73B32DE9F843814616461C4691
S315000009F05F1EDFF8548027F0FF075D18012CA4F175
S31500000A0002021DD00123013A03EB8303511C4FEA76
S31500000A104303F8D1B6FBF3F3A8FB0312D20802EBAB
S31500000A208202A3EB4203291B03F130024846C9B2F6
S31500000A3052B2013CFFF7BEFEBC42DFD1BDE8F883EF
S31500000A403346E9E7704700BFCDCCCCCCA94B10B5F7
S31500000A505968A94801F0B4FB012240F20D11A648DD
S31500000A6001F06EFA01210A2002F0BEFA01224FF4CB
S31500000A708671A14801F064FA01210A2002F0B4FA55
S31500000A80C8204FF47A7102F0AFFAFFF727FD7820FD
S31500000A90FFF786FD20B9FFF783FDAE20FFF780FD47
S31500000AA0FFF752FDFFF71AFD7820FFF779FD20B911
S31500000AB0FFF776FDD520FFF773FDFFF745FDFFF73E
S31500000AC00DFD7820FFF76CFD20B9FFF769FD80204A
S31500000AD0FFF766FDFFF738FDFFF700FD7820FFF70B
S31500000AE05FFD20B9FFF75CFDA820FFF759FDFFF772
S31500000AF02BFDFFF7F3FC7820FFF752FD20B9FFF737
S31500000B004FFD3F20FFF74CFDFFF71EFDFFF7E6FC0C
S31500000B107820FFF745FD20B9FFF742FDD320FFF708
S31500000B203FFDFFF711FDFFF7D9FC7820FFF738FDF1
S31500000B30044620B9FFF734FD2046FFF731FDFFF7E5
S31500000B4003FDFFF7CBFC7820FFF72AFD20B9FFF75E
S31500000B5027FD4020FFF724FDFFF7F6FCFFF7BEFC5C
S31500000B607820FFF71DFD20B9FFF71AFDA120FFF73A
S31500000B7017FDFFF7E9FCFFF7B1FC7820FFF710FD42
S31500000B8020B9FFF70DFDC820FFF70AFDFFF7DCFCD3
S31500000B90FFF7A4FC7820FFF703FD20B9FFF700FD5F
S31500000BA0DA20FFF7FDFCFFF7CFFCFFF797FC782074
S31500000BB0FFF7F6FC20B9FFF7F3FC1220FFF7F0FC75
S31500000BC0FFF7C2FCFFF78AFC7820FFF7E9FC20B9A3
S31500000BD0FFF7E6FC8120FFF7E3FCFFF7B5FCFFF724
S31500000BE07DFC7820FFF7DCFC20B9FFF7D9FC30202C
S31500000BF0FFF7D6FCFFF7A8FCFFF770FC7820FFF79D
S31500000C00CFFC20B9FFF7CCFCD920FFF7C9FCFFF7D2
S31500000C109BFCFFF763FC7820FFF7C2FC20B9FFF7C7
S31500000C20BFFCF120FFF7BCFCFFF78EFCFFF756FC7C
S31500000C307820FFF7B5FC20B9FFF7B2FCDB20FFF701
S31500000C40AFFCFFF781FCFFF749FC7820FFF7A8FC13
S31500000C5020B9FFF7A5FC3020FFF7A2FCFFF774FCD4
S31500000C60FFF73CFC7820FFF79BFC20B9FFF798FCC8
S31500000C70A420FFF795FCFFF767FCFFF72FFC782011
S31500000C80FFF78EFC20B9FFF78BFCA620FFF788FC48
S31500000C90FFF75AFCFFF722FC7820FFF781FC20B90A
S31500000CA0FFF77EFC8D20FFF77BFCFFF74DFCFFF77F
S31500000CB015FC7820FFF774FC20B9FFF771FC1420AF
S31500000CC0FFF76EFCFFF740FCFFF708FC7820FFF704
S31500000CD067FC20B9FFF764FCAF20FFF761FCFFF764
S31500000CE033FCFFF7C9FCBDE810404FF47A7132209F
S31500000CF002F07AB9D4390000CC00002010B52DEDF1
S31500000D00028B1F4C84B020461E4901F0A9FB4FF40C
S31500000D107A710A2002F068F9204601F0B5FA01A9B5
S31500000D20204601F0B7FADDED037ADFED178AB8EE5B
S31500000D30677A9FED168A27EE287AC7EE087AFCEEC8
S31500000D40E77A002217EE901A204601F0F7FA01A979
S31500000D50204601F09FFADDED037AF8EE677A67EE3A
S31500000D60A87A87EE887AFCEEC77A0122204617EE2B
S31500000D70901A01F0E3FA04B0BDEC028B10BD00BF7F
S31500000D8058010020E03A00000000A0420000C842DE
S31500000D90B5EEC00A00B5F1EE10FA2DED028B85B066
S31500000DA022D4DFED137AB4EE670AF1EE10FA37FEBD
S31500000DB0808A01A90F4801F06DFADDED037AB8EEDD
S31500000DC0670A9FED0B7A20EE088AC8EE077AFCEEDA
S31500000DD0E77A002217EE901A064801F0AFFA05B03E
S31500000DE0BDEC028B5DF804FB9FED038AE1E700BFD3
S31500000DF00000C8425801002000000000B5EEC00AFD
S31500000E0000B5F1EE10FA2DED028B85B022D4DFEDA0
S31500000E10137AB4EE670AF1EE10FA37FE808A01A95A
S31500000E200F4801F037FADDED037AB8EE670A9FED59
S31500000E300B7A20EE088AC8EE077AFCEEE77A0122E2
S31500000E4017EE901A064801F079FA05B0BDEC028B50
S31500000E505DF804FB9FED038AE1E700BF0000C8428E
S31500000E60580100200000000010B5194C042240F281
S31500000E700161204601F0B4F9042240F202612046E5
S31500000E8001F0AEF9042240F60101204601F0A8F96E
S31500000E90042240F60201204601F0A2F9002240F2A7
S31500000EA00161204601F04CF8002240F20261204622
S31500000EB001F046F8002240F60101204601F040F814
S31500000EC02046BDE81040002240F6020101F038B885
S31500000ED0CC00002010B50A46044688B9012912D074
S31500000EE0022925D040F2016102461F4801F028F888
S31500000EF02246BDE8104040F202611B4801F020B8CE
S31500000F00012803D010BD40F20161EEE701291ED091
S31500000F1002291BD140F601010022134801F010F806
S31500000F202246BDE8104040F602010F4801F008B81D
S31500000F30024640F201610C4801F002F8BDE810409B
S31500000F40012240F20261084800F0FABF002240F692
S31500000F500101054800F0F4FFBDE81040002240F60C
S31500000F600201014800F0ECBFCC00002010B5064C91
S31500000F7010220E21204601F033F92046BDE810402C
S31500000F8010220F2101F02CB9CC00002000B583B04F
S31500000F900E210DF106021B4800F0A8FF0F2119488B
S31500000FA00DF1070200F0A2FF9DF8063073B9164B4B
S31500000FB01A78E2B19DF8070088B101281DD10023F7
S31500000FC01846124A137003B05DF804FB012BF1D1E9
S31500000FD000220D4B9DF807001A700028EDD10B4B2F
S31500000FE01A78002AEFD1012202201A70EBE70122BB
S31500000FF010461A7003B05DF804FB002003B05DF8DC
S3150000100004FB00BFCC000020440000204500002067
S3150000101038B5144C042240F20C61204601F0E0F889
S31500001020042240F20F61204601F0DAF80E4D00224C
S3150000103040F20C61204600F083FF002240F20F616F
S31500001040204600F07DFF2846084901F009FA1420E1
S315000010504FF47A7101F0C8FF2846BDE8384001F028
S3150000106013B900BFCC00002038010020903A0000E0
S31500001070B5EEC00A10B5F1EE10FA2DED028B04465E
S3150000108084B022D4DFED267AB4EE670AF1EE10FAC8
S31500001090244801A937FE808A01F0FCF8012C1CD0F7
S315000010A0002240F20C61204800F04AFF002240F284
S315000010B00F611D4800F044FF00221A48114601F056
S315000010C03DF904B0BDEC028B10BD164801A901F034
S315000010D0E1F8012C9FED158AE2D1224640F20C611F
S315000010E0039C114800F02CFF002240F20F610E48CD
S315000010F000F026FF07EE904AB8EE670A9FED087AE1
S3150000110020EE088AC8EE077AFCEEE77A002217EE90
S31500001110901A044801F012F904B0BDEC028B10BD20
S315000011200000C84238010020CC000020000000006A
S31500001130002240F20541014800F002BFCC00002029
S31500001140024640F20541014800F0FABECC000020FC
S3150000115000B500224FF0800E4FF4006C174940B2E4
S315000011604EFA02F303405BB2A3B10E23A1F8AAC064
S3150000117000BF013B13F0FF03FAD11823A1F8A8C062
S3150000118000BF013B13F0FF03FAD10132082AE7D171
S315000011905DF804FB1823A1F8AAC000BF013B13F0B9
S315000011A0FF03FAD10E23A1F8A8C000BF013B13F03C
S315000011B0FF03FAD10132082AD2D1E9E7000008403C
S315000011C070B5EFF3108672B60C4C04F11805207852
S315000011D0FFF7BEFF033414F8020CFFF7B9FF14F84B
S315000011E0010CFFF7B5FFAC42F1D106B962B64FF478
S315000011F00062034BA3F8A82070BD00BF4800002082
S31500001200000008404FF4006208B5104B0121A3F816
S31500001210A8204FF47A7001F0E7FE00220C4B03F190
S3150000122018015A701A709A7003338B42F9D1FFF77E
S31500001230C7FF4FF40062054B0121A3F8A8204FF425
S315000012407A70BDE8084001F0CFBE00BF000008403C
S315000012504800002007280AD810B4054C00EB4000CF
S3150000126022542044417083705DF8044B70477047E8
S3150000127048000020002208B50B4B03F118015A70F4
S315000012801A709A7003338B42F9D1FFF799FF4FF426
S315000012900062064B0121A3F8A8204FF4FA70BDE8BE
S315000012A0084001F0A1BE00BF480000200000084031
S315000012B010B5144C84B02046134901F0D1F84FF410
S315000012C07A710A2001F090FE204600F0DDFF01A9A8
S315000012D0204600F0DFFFDDED037AB0EE047AF8EE8B
S315000012E0677ADFED0A6A67EE877A87EEA67AFCEE02
S315000012F0C77A0122204617EE901A01F01FF804B0B3
S3150000130010BD00BF18010020403A00000000C8428E
S31500001310F0EE047AB4EEE70A00B5F1EE10FA2DED20
S31500001320028B85B022D4F2EE097AB4EE670AF1EEAA
S3150000133010FA37FE808A01A90E4800F0ABFFDDEDFA
S31500001340037AB8EE670A9FED0C7A20EE088AC8EE9B
S31500001350077AFCEEE77A012217EE901A054800F0AC
S31500001360EDFF05B0BDEC028B5DF804FBB0EE678ABD
S31500001370E1E700BF180100200000C84210B52DEDBE
S31500001380028B1C4C84B01C49204601F06DFA2046A5
S3150000139001F0D0F901A9204601F026FADDED037A25
S315000013A0F1EE0E8AB8EE677A9FED148A27EE287A58
S315000013B0C7EE087AFCEEE77A002217EE901A20466E
S315000013C001F068F901A9204601F00EFADDED037A75
S315000013D0F8EE677A67EEA87A87EE887AFCEEC77A27
S315000013E00122204617EE901A01F054F904B0BDEC24
S315000013F0028B10BDF8000020183A00000000C84219
S31500001400F0EE047AB4EEE70A00B5F1EE10FA2DED2F
S31500001410028B85B022D4F2EE097AB4EE670AF1EEB9
S3150000142010FA37FE808A01A90E4801F0DDF9DDEDDC
S31500001430037AB8EE670A9FED0C7A20EE088AC8EEAA
S31500001440077AFCEEE77A002217EE901A054801F0BB
S3150000145021F905B0BDEC028B5DF804FBB0EE678A9E
S31500001460E1E700BFF80000200000C842F0EE047A71
S31500001470B4EEE70A00B5F1EE10FA2DED028B85B059
S3150000148022D4F2EE097AB4EE670AF1EE10FA37FECC
S31500001490808A01A90E4801F0A7F9DDED037AB8EEBE
S315000014A0670A9FED0C7A20EE088AC8EE077AFCEEF2
S315000014B0E77A012217EE901A054801F0EBF805B01D
S315000014C0BDEC028B5DF804FBB0EE678AE1E700BF76
S315000014D0F80000200000C84208B50A490A4801F091
S315000014E0E1FA0A49084801F0BBFB20B9084A094B52
S315000014F01070187008BD1021074B084A084801F003
S315000015006BFD00BFE0390000D4000020043A000063
S31500001510600000206C0000203439000060390000B3
S315000015204839000001230249024A0B7013707047C4
S315000015306D00002061000020002330B5194C83B0F7
S315000015401948ADF80630237001F06CFA2378002BA9
S31500001550FCD00DF106020A21134801F069FA134B7B
S31500001560BDF806001A789AB1114D124A2B7822F866
S3150000157013005088148891880444D0880A191044AE
S31500001580013303F00303C0F38F002B7003B030BDAB
S315000015900121084A1970108050809080D08003B0D5
S315000015A030BD00BF6D000020D40000206000002088
S315000015B06C0000206400002040F6FF7188424FF066
S315000015C0640228BF084602FB00F0044BA3FB00237D
S315000015D0C01A03EB5000C0F3C7207047010110008A
S315000015E0002310B51B4C82B01B48ADF806302370A3
S315000015F001F018FA2378002BFCD0022116480DF1D1
S31500001600060201F015FA1549BDF806000B78ABB1D4
S315000016100022134C1349237821F81300013303F0F9
S315000016200F03237001F11E008B1E33F8021F834245
S315000016300A44FAD1C2F30F1002B010BD0A4B03F1EF
S31500001640200223F8020F9342FBD101230B7002B054
S3150000165010BD00BF6D000020D400002091000020C6
S3150000166090000020700000206E000020002310B5BE
S315000016701B4C82B01B48ADF80630237001F0D2F93E
S315000016802378002BFCD0032116480DF1060201F049
S31500001690CFF91549BDF806000B78ABB10022134C03
S315000016A01349237821F81300013303F00F03237045
S315000016B001F11E008B1E33F8021F83420A44FAD141
S315000016C0C2F30F1002B010BD0A4B03F1200223F83B
S315000016D0020F9342FBD101230B7002B010BD00BF75
S315000016E06D000020D4000020B5000020B4000020CA
S315000016F0940000209200002008B50B490B4801F029
S31500001700D1F928B90A49094801F0AAFA30B908BD41
S315000017100921084B084A094801F05EFC0B21054BDC
S31500001720054A064801F058FCE0390000D4000020C4
S31500001730043A000034390000883900006C39000092
S31500001740002310B50B4C82B00B48ADF80630237061
S3150000175001F068F92378002BFCD0002301210DF15C
S3150000176006020548237001F063F9BDF8060002B0D1
S3150000177010BD00BF61000020D40000203B4A431E7C
S3150000178010B51070082B6CD8DFE803F013604A55CB
S315000017901E29343F050000246423E0B200221946C6
S315000017A00134FFF757FD082CF6D1BDE81040FFF7CE
S315000017B007BD00240023E0B264211A460134FFF776
S315000017C049FD082CF6D1F0E700246422E0B200239C
S315000017D011460134FFF73EFD082CF6D1E5E700245B
S315000017E06423E0B200211A460134FFF733FD082CCA
S315000017F0F6D1DAE700246423E0B200221946013468
S31500001800FFF728FD082CF6D1CFE70024E0B200232D
S31500001810322264210134FFF71DFD082CF6D1C4E7FE
S3150000182000240022E0B2642311460134FFF712FDC2
S31500001830082CF6D1B9E700245023E0B21A4619461F
S315000018400134FFF707FD082CF6D1AEE7002400238C
S31500001850E0B2642219460134FFF7FCFC082CF6D1ED
S31500001860A3E7BDE81040FFF705BD00BFB6000020A6
S3150000187008B5EFF31081012383F31088254B1A680E
S315000018802AB94FF0400C2448C27080F803C01A6889
S3150000189001321A6081F31088FFF7D8F8FEF7ECFEE4
S315000018A001211E4A0846FFF789F8012102201C4A39
S315000018B0FFF784F8012103201A4AFFF77FF8062173
S315000018C00320194AFFF77AF801210420174AFFF787
S315000018D075F807210420164AFFF770F8FFF7FCFD9C
S315000018E0FFF70AFFFFF794FBFFF7BEFAFFF706FACA
S315000018F0FFF73CFBFEF7F0FCFEF7D8FDFFF718FC00
S3150000190000210846FFF7E6FABDE80840002101205D
S31500001910FFF7E0BAD0010020000D0840983900001A
S31500001920A0390000A8390000AC390000B439000025
S31500001930BC3900002DE9F04F2DED048B00268DB04B
S31500001940042240F201618B4800F04AFC012240F279
S315000019500161884800F0F4FA4FF47A71642001F0CE
S3150000196043FB324640F20161824800F0E9FAFFF794
S3150000197049FCFFF77FFC4FF47A710A2001F034FB33
S31500001980FFF796FCB2EE090AFFF7C2FCFFF7F6FC7A
S31500001990B2EE090AFFF734FDB1EE0E0AFFF766FD57
S315000019A0754B4FF4FA741E70744B9FED759A1E704A
S315000019B0744BDFED758A1E70FFF75AFFFF224FF654
S315000019C0FF739FED728ADFED729A93461746A14622
S315000019D0CDE90333DFF8E0A1DFF8E081654D07923A
S315000019E005939FE06B4B1B78B3B96B4A13880133A1
S315000019F09BB2092B13800FD95F4A1378002B0BBFBC
S31500001A0001230023B1EE0E0AB2EE090A1370FFF7A6
S31500001A107FFC01235F4A137040F20E2128460DF128
S31500001A20260200F063FA9DF82630002B40F068810C
S31500001A305A4B1B78D3B95A4A138801339BB2092BE8
S31500001A40138013D94D4A1378002B0CBF01230023B2
S31500001A50137040F0E181B1EE0E0AFFF7D1FCB2EE51
S31500001A60090AFFF703FD01234C4A137040F20921CE
S31500001A7028460DF1270200F039FA9DF82730002B91
S31500001A8040F09E809AF8000098B9464A13880133C0
S31500001A909BB2092B13800CD9434A1378002B0ABF3B
S31500001AA00123002301201370FEF708FD01238AF8A5
S31500001AB00030FFF76BFA012800F08C80022898F8B6
S31500001AC0003000F04781012B00F09A800136B6B253
S31500001AD0182E00F2B38009F101031FFA83F9B9F554
S31500001AE0FA7F1AD30AA8FEF757FC012800F01481E2
S31500001AF0BBF1FF0F04D003212C4A0846FEF75EFF18
S31500001B00FF2F00F071814FF0FF0B09210320274AB8
S31500001B10FEF754FF4FF00009FF274FF47A710120BA
S31500001B2001F062FA40F20E41284609AA00F0DEF9F9
S31500001B309DF82430002B40F0E9801D4B1B783BB903
S31500001B401C4A138801339BB2092B138000F2518182
S31500001B504FF4006128460DF1250200F0C7F99DF803
S31500001B602530002B3FF43EAF00230B4A1380094A71
S31500001B70137051E7CC000020C2000020B7000020FF
S31500001B8000008C42B60000200000A04200000000C9
S31500001B9000007042BA000020C8000020B8000020F3
S31500001BA0C4000020C6000020BC000020D039000080
S31500001BB0BB000020CA000020B9000020BF000020A2
S31500001BC00023B04A8AF800301380FFF7DFF90128B6
S31500001BD07FF474AFAC490B78002B0CBF01220022B6
S31500001BE00A7040F0CE8001461846FFF773F9B0EE52
S31500001BF0680AFFF7CDF898F80030012B7FF466AF3E
S31500001C00A2490A88013292B2952A0A807FF65EAF0F
S31500001C1018460021FFF75EF9B0EE480AFFF7EEF826
S31500001C209B4900220B780136B3FA83F3B6B25B09FF
S31500001C30182E88F800200B707FF64DAFFFF7D0FC0A
S31500001C400446FFF77DFD0646FFF710FD0690FFF7F9
S31500001C5073FC0190FFF7B0FC039B0290A34205D0F2
S31500001C600423224605210120FEF7BCFE40F6C413DC
S31500001C709C4204D9844B1878002800F0E180049B2C
S31500001C80B34205D00423324606210220FEF7AAFEFF
S31500001C9040F6C413069A9A427AD9B0EE690A012030
S31500001CA0FFF7E6F9079B012B06D006210420794AA7
S31500001CB0FEF784FE01230793B6F5FA6F34BF0120C1
S31500001CC00020FFF73DFA059B019A93420AD00721AF
S31500001CD00420029A0323FEF785FE0A2104206E4A99
S31500001CE0FEF76CFE029B322B62D998F80030002B6F
S31500001CF000F0AF80019B0394CDE904630026EAE679
S31500001D000023664A1380664A1370AFE60023654ACD
S31500001D101380654A13701BE79DF82A209DF828401A
S31500001D20934508D0FF2A00F0A68003210223084627
S31500001D309346FEF757FEA74253D0FF2C3FF4E5AE7D
S31500001D4002232246092103202746FEF74BFE4FF0C9
S31500001D500009E2E6002B7FF4B6AE4C4A138001235D
S31500001D604B4A88F800301278002A5ED11946184688
S31500001D70FFF7B0F8B0EE490AFFF740F898F80030E0
S31500001D80A1E600210846FFF7A5F898F800309AE684
S31500001D90B0EE480A0020FFF76BF9079B002B8BD0AB
S31500001DA006210420414AFEF709FE0023079383E734
S31500001DB0029B1D2B9ED898F80030002B9AD101214A
S31500001DC0324A08461380019A0394CDE9046288F8E2
S31500001DD000101E46FFF77EF8B0EE490AFFF70EF830
S31500001DE079E64FF0000998E6FF274FF00009BB4659
S31500001DF093E62F4A2F4B10780130A3FB0013DB0824
S31500001E0003EB8303A0EB4300C0B21070FFF7B6FCF0
S31500001E100123254A13709BE6B2EE090AFFF7F0FA92
S31500001E20B1EE0E0AFFF722FB1DE601461846FFF744
S31500001E3051F8B0EE490AFEF7E1FF98F8003042E6A5
S31500001E4001211970FFF746F8B0EE680AFEF7A0FF09
S31500001E5015E701200D4A02211380019A0394CDE96A
S31500001E60046288F800001E46FFF734F8B0EE490A0F
S31500001E70FEF7C4FF2FE60321934608460E4AFEF7F7
S31500001E809DFD58E7C6000020BD000020C0000020D0
S31500001E90BE000020C4390000CC390000C400002078
S31500001EA0B8000020CA000020BB000020C83900008E
S31500001EB0B6000020CDCCCCCCD0390000022800D012
S31500001EC070470249024800F07BB900BF303B000072
S31500001ED0CC00002008B5FFF72DFD002008BD00BF8F
S31500001EE00022034610461A60704700BF0B0A10B462
S31500001EF01B01064C53FA81F154F821300020C3F33C
S31500001F0040035DF8044B1370704700BF000808409B
S31500001F10090A490101F1804101F500214B680020C1
S31500001F2013807047090A490123EA020C01F1804136
S31500001F301A4001F5002142EA0C4200208A607047EF
S31500001F400123C8B283404AB91A040B0A5B0103F1A4
S31500001F50804303F5002300209A6070479AB2F4E7A5
S31500001F60090A490101F1804101F5002110B40C680C
S31500001F7002EA030C4CEA040C62EA030202EA0C02CF
S31500001F8000205DF8044B0A60704700BF090A49014A
S31500001F9001F1804101F500214B680020C3F30F4396
S31500001FA013807047012310B44FEA112C4FEA4C1CE2
S31500001FB00CF1804C0CF5002CDCF80440C9B203FA95
S31500001FC001F18BB201EA1441C91AB1FA81F149094A
S31500001FD000205DF8044B1170704700BF090A4901E3
S31500001FE023EA020C01F180411A4001F5002142EA80
S31500001FF00C420020CA607047012A14D04FF480308A
S315000020000B0A5B0103F1804303F5002310B4CAB247
S31500002010DC6800FA02F22243120C120400205DF87A
S31500002020044BDA6070470B0A5B0103F1804303F54A
S315000020300023D868C9B28A40024392B20020DA600F
S31500002040704700BF2DE9F84F0388002B3DD00746A7
S315000020504FF00008DFF8A4A040F202427B684FEA86
S31500002060C80559198988002491424FF00109224E6A
S3150000207009D00134032C23D07B6836F8022B59197A
S3150000208089889142F5D15B5909FA04F203F0B853F5
S31500002090B3F1807F5FFA82FB19D09AF8BB341A42FB
S315000020A0E7D0012001F070F89AF8BB34012023EA4A
S315000020B00B0B8AF8BBB4013401F036F8032CDBD1E4
S315000020C03B8808F101084345C6D8BDE8F88F9AF861
S315000020D0BB2409FA04F313425FFA83FBC9D101203A
S315000020E001F052F89AF8BB3401204BEA030B8AF848
S315000020F0BBB401F019F8BCE74E3D000000E001401A
S31500002100F8B50446FFF79EFFEFF31082012383F331
S315000021101088284E33681BB92749CB704023CB70F3
S3150000212033680133336082F3108823887BB3626897
S3150000213003F1FF3E1FFA8EFE02F108011F4C01EB70
S31500002140CE0E08E0D2B21B0113448E450A4644F86F
S3150000215023001CD008311068928810F4803F4FEAA3
S315000021601223EFD0130AD2B202EB031C54F82C70E0
S315000021701B01134420F480356FF310478E4544F855
S315000021802C700A4644F82C5044F82300E2D1EFF3B1
S315000021901082012383F31088336813B13368013B3F
S315000021A0336033681BB980200349CB70C87082F353
S315000021B01088F8BDD0010020000D08400008084036
S315000021C008B5034B03600846FFF79AFF002008BDD9
S315000021D054524F5008B50846FFF792FF002008BD3D
S315000021E070B5012684B002AB68460C4615460193CD
S315000021F0ADF80060ADF80C100292FFF723FFEFF385
S31500002200108286F310881D490B681BB940261C48AE
S31500002210C370C6700B6801330B6082F31088EA0343
S315000022204FEA1423E4B219D41B01164A234442F898
S315000022302350EFF31082012383F310880B6813B148
S315000022400B68013B0B600B681BB980200C49CB70F7
S31500002250C87082F31088002004B070BD094A04EBF0
S31500002260031052F820601B016FF3104642F82060FD
S3150000227025F4803642F82060D7E700BFD001002061
S31500002280000D08400008084003460020D3E9022359
S315000022905360704702464FF0010C30B494680C4D01
S315000022A0626E0C4B62448A60E46A2A6A1B6881F893
S315000022B000C0C4F3C35CC2F30264A34002F0070289
S315000022C0D34023FA0CF3002030BC4B60704700BFAC
S315000022D000E001405C03002030B48C6E01342AB16A
S315000022E0944203D930BC013A1A607047029D496B8B
S315000022F00078ED0754BF01F01F01C1F30441032824
S3150000230008D9090981F001016AB9A1B930BC0222D4
S315000023105A60704701F00C01A1F10401B1FA81F194
S315000023204909002AF1D0944201D80029EED130BCE7
S3150000233003225A607047002CE8D0F8E72DE9F041F7
S315000023404FF0FF3C0025064684B0009202AB0F46D4
S31500002350144602F003080A46D0E90101CDE902C598
S31500002360FFF7BAFFB368039A1D6B5AB914F0080F4A
S315000023700CBF02210421A0071DD5029803EB8101A1
S31500002380C864086561061ED5196CB8F1010F41F4E1
S315000023908001196406D025F4403545EA0245B8F1B6
S315000023A0000F03D025F0407545EA026500201D6345
S315000023B004B0BDE8F08141440298123103EB81017B
S315000023C048606106E0D4B8F1010F12D025F440351B
S315000023D0022C45EA0245E2D1002AE3D00120009012
S315000023E019463A4602AB7068FFF776FF039AB36860
S315000023F0D8E7022CD6D1002AD4D0EFE7002800DA9D
S31500002400704710B400F160430901134CC9B203F5DB
S31500002410614383F80013114B00F1C00144F82020FA
S3150000242053F821206FF3104243F8212053F821304E
S31500002430BFF35F8F012243099B0000F01F0003F1E9
S31500002440604303F5614302FA00F0C3F880011860A7
S315000024505DF8044B704700BFD401002000600040C7
S3150000246001222DE9F0410D46097C044602FA01F3EA
S31500002470C3601B0714BF002302744FF0000218BF8D
S315000024800374814B84B00B4469691B028360456009
S31500002490D5E906364161C0E90623EFF3108E4FF009
S315000024A0010C8CF310884FF00040784B2F7C196993
S315000024B020FA07F721EA070119611B698EF31088D4
S315000024C04FF42541A368D5F804E01960DA62DA63AF
S315000024D09A6429782F7A03294FEAC7570EF1FF38F5
S315000024E000F09880DF6203921861586198615A6221
S315000024F09A624FF0FF32B069F76AD861F0690292CA
S315000025001862C3F86880C3F86480002940F0B1807F
S31500002510614638464FF0030C4FEA5E02013A0292DA
S315000025205A659A6500284FD13278002A5AD1287800
S31500002530B278C2B196F803E002284FEA0E1242EAD8
S315000025408E1200F09080032800F09B80BEF1000FF1
S3150000255014BF4FF0090E4FF0060E42EA0E0247EA8C
S31500002560024747F0807700229A63C3F8882096F8DE
S31500002570212096F820E0520742EA4E3217434FF4E4
S31500002580AA0201281A6429D0E268DA605F63C3F8F8
S3150000259030C019632246697C95F91200FFF72EFFB9
S315000025A0224696F8221096F92400FFF727FF96F99F
S315000025B02500224696F82310FFF720FF0020344B13
S315000025C0236004B0BDE8F08100229A63C3F8882036
S315000025D04FF4AA0228781A640128D5D10022DA64B9
S315000025E01A65D1E796F801E028784FEA0E1202281C
S315000025F042EA8E123AD0032841D0BEF1000F14BF32
S315000026004FF0090E4FF0060E42EA0E02174347F44A
S3150000261080778DE747F48037DF620392186158614F
S3150000262098615A629A624FF0FF320292B269F76A73
S31500002630DA61F2691A62C3F86880C3F864801946E1
S3150000264000230093EA68606802ABFFF745FEDDE908
S315000026500220010641EA004141F0030CA368F06A3A
S3150000266041F001015CE74FF0090E76E74FF0090EE5
S31500002670CAE70129E3D138464FF0030C50E78646F6
S31500002680C2E7864669E700BF901640000040084052
S315000026905450470030B4057B846895B104F10C0CA6
S315000026A09CF8000000F001009CF80030C3F34003E2
S315000026B09842F9D145B10434002044F8221030BCC8
S315000026C0704704F1080CEBE7023489B2002024F8C5
S315000026D0121030BC704700BF10B44368016193F814
S315000026E010C0134C1A7844F82C104B1E5AB94908DE
S315000026F0027B92B9826889B2518091809BB25DF863
S31500002700044B13807047012A10D0022A18BF0021FB
S31500002710EED1027B42B98268F0E78268516091602F
S315000027205DF8044B136070478268F9E71946DFE7E6
S3150000273078010020037B10B5846883B10C342278BD
S3150000274002F001022378C3F340039A42FAD14368A8
S315000027501B78012B05D0F1232370002010BD08340F
S31500002760EDE70169FFF7B8FFF12243681B78227095
S31500002770012BF2D123789B07FCD5037B33B14FF0B5
S31500002780FF32836800205A609A6010BD4FF6FF72D0
S31500002790836800205A809A8010BD00BFE1B100F125
S315000027A00C035A78C2F3021152060ED40C4B0D4A92
S315000027B01B6A1068C3F302629040C3F30223D84039
S315000027C049B181F00201C84070474FF400409B7840
S315000027D003F00703D840704700F10803E1E700BFA4
S315000027E000E001405C03002070B50D46017B044605
S315000027F08068E9B100F10C0C9CF8002002F001029F
S315000028009CF80030C3F340039A42F9D12369AB60C8
S315000028106368DA691278502A0DD11B7C114E013B90
S31500002820DBB256F8233063B9002028706B6070BDA8
S3150000283000F1080CE0E7FFF7B1FF686000202870A0
S3150000284070BDA0F58070FFF7A9FF63681B7C013B94
S31500002850DBB256F82330B0FBF3F068600020287036
S3150000286070BD00BF7801002000232DE9F04F0373EF
S3150000287041600A7C0C46120202F1804202F568228F
S3150000288083B08260EFF31086012383F31088097CFE
S31500002890032900F28780C1F103018B40DB435D49C8
S315000028A0CD680C312B400B600B6886F31088002333
S315000028B01372137AC3F340019B07FAD490F80C9075
S315000028C09172257AE3698668B9F1000F67D006F13F
S315000028D00C0CDA781F78197902F00702002F57D10D
S315000028E0002D67D1476893F801E097F800800EF055
S315000028F0770AB8F1020F64D09B7813F0070305D06E
S3150000290041F00401032B08BF41F001018CF80410CB
S315000029108CF806A061688CF801208CF80250FFF74D
S31500002920DBFE94F91230002B26DB627C03F160415A
S315000029301201D2B201F5614181F800233649374AC6
S3150000294041F8230003F1C00152F821506FF31045FE
S3150000295042F8215052F82120BFF35F8F01215A0916
S31500002960920003F01F0302F1604202F5614201FA90
S3150000297003F3C2F8803113600023D4E90551284AD5
S315000029804561C16102608361184603B0BDE8F08FFE
S31500002990502F06BF002542F050023A43A2E706F147
S315000029A0080C96E7C1F113018B401A49DB430D6908
S315000029B0103177E785F0020542EA0512D2B23D46AC
S315000029C090E7D7F804B0D7F80C800BF1FF37A7EBE8
S315000029D008070EF0070B0197BBF1070F18BF474614
S315000029E0BB460097019F0EF0700EBEF1700F08BF38
S315000029F0B846B9F1000F04D0C6F804B0C6F808808E
S31500002A007AE71FFA8BFB1FFA88F8A6F802B0A6F839
S31500002A10048071E700400840D401002000600040B7
S31500002A205447410003461A689B8A0020138070476A
S31500002A3003461B68103133F81130002013807047AD
S31500002A40002800DA704710B400F160430901134C06
S31500002A50C9B203F5614383F80013114B00F1C001BD
S31500002A6044F8202053F821206FF3104243F8212028
S31500002A7053F82130BFF35F8F012243099B0000F01A
S31500002A801F0003F1604303F5614302FA00F0C3F847
S31500002A90800118605DF8044B704700BFD401002028
S31500002AA0006000402DE9F0410027CA680B884E6996
S31500002AB082610A695B02C0E9077203F1804303F58C
S31500002AC0B81303604160054648790C46F278897868
S31500002AD0030243EA4133002A58D043F430730228F4
S31500002AE014BF00202F499BB208BF31F82200AB82E9
S31500002AF02279E178D20342EA4102717896F800C061
S31500002B0042EA4112EFF31088012181F31088B4F8EC
S31500002B1000E0254FCEF1100E01FA0EF1D7F80CE0C9
S31500002B202EEA0101F960F96888F3108847F6FF512B
S31500002B300B40296892B20B800882CA8181F80CC0CA
S31500002B4073792A46A3F10103B3FA83F35B0981F88B
S31500002B50D030217A94F90600FFF772FF2A46617A8F
S31500002B6094F90700FFF76CFF2A46317A96F90600BA
S31500002B70FFF766FF96F907002A46717AFFF760FFAE
S31500002B8000200A4B2861AB60BDE8F08130B943F400
S31500002B90004343F040039BB2AB82A9E743F04003F6
S31500002BA09DE700BF543D00000040084043444152A9
S31500002BB0F0B5C769054689B017B3BE466C468C4664
S31500002BC0BEE80F003E460FC49EE80F0084E80F00E3
S31500002BD0BCE80F000FC69CE80F008EE80F00AB693B
S31500002BE038469847EB694BB19C46EE46BEE80F0067
S31500002BF0ACE80F009EE80F008CE80F0009B0F0BDAE
S31500002C000F46ECE710B588B0EFF30383124A103B8A
S31500002C105BB252F82320EFF30383103B0F495BB2FC
S31500002C20C03351F823406FF3104441F8234051F864
S31500002C302330002153688DF802001C88106A9369BE
S31500002C40ADF8004001908DF808101BB1104669469A
S31500002C50FFF7AEFF08B010BDD401002000600040B1
S31500002C6043682DE9F0430C684A685E6903688D681D
S31500002C701FFA84F8A3F804801FFA82F8A3F81480D8
S31500002C8022F0C04C1FFA85F824F0C04E25F0C0474C
S31500002C902243A3F808804FEA1C4C3F0C4FEA1E481B
S31500002CA012F0C04FA3F80680A3F816C05F8153D177
S31500002CB0CF68002F00F0AF80B7F808C01CF4006F93
S31500002CC020D0D7E90052B7F80A80A3F890C0A3F83D
S31500002CD09C80B7F80C80A3F89E801FFA85F8A3F8AD
S31500002CE09480C5F30B486D0FA3F8968083F8925035
S31500002CF095B2A3F89850C2F30B45520FA3F89A5019
S31500002D0083F893201CF4007F1AD10A8AA3F890C096
S31500002D10A3F88020F2786AB1BEFA8EFE1A88818AFC
S31500002D2092B222F01F021F32A2EB0E0292B21143A0
S31500002D301A808182394BC0E903340020BDE8F08354
S31500002D40BA7CFD7C2A4383F8A620FA89A3F8A8203A
S31500002D503A8AA3F8AA20D8E741F23608304FD7F8C6
S31500002D602090304FC9F3026C3F68C9F3021907FA85
S31500002D700CFC2D4F2CFA09FCA7FB0C7C4FEA9C1C83
S31500002D8008FB0CFC294FA7FB0C7C4FEA9C4C0CF172
S31500002D90010CBCF1070F38BF4FF0070C12F00057BB
S31500002DA022D0EFF31085012383F31088204BDC68D3
S31500002DB024F48004DC60DB6885F3108890251D4BC5
S31500002DC00C681D7003685FFA8CF714F0005F8D685D
S31500002DD083F8DE7014BF4FF480774FF4806715F0E8
S31500002DE0005F18BF47F0010752000ED5620048BFCA
S31500002DF047F400775FFA8CFC58BF47F400676A0017
S31500002E0083F8DFC048BF47F00207BFB25F82CF68D2
S31500002E10002F7FF451AFBC4677E700BF43444152D1
S31500002E2000E001405C030020D34D621083DE1B43AB
S31500002E300040084000300F400020FFF7E3BE00BF0F
S31500002E40064B074993F826001A6A51F82030C2F358
S31500002E5002620449D3400B60704700BF00E00140A6
S31500002E60080000205C030020F8B54AF20350012355
S31500002E703749384AA1F8FE03A2F80431B2F8043102
S31500002E809BB2002BFAD101214FF400454FF0090CFB
S31500002E90314CDFF8DCE0314EC4F804E0DFF8D4E072
S31500002EA02B48C4F80CE02E4FA2F800112D4AB16051
S31500002EB031606261276090F82620A5602561056A69
S31500002EC054F82220C5F30265EA40274D2A6080F8AF
S31500002ED0133480F8A2C090F8803493B300231C49C1
S31500002EE081F8813481F8803481F8323091F83C30B1
S31500002EF01A07FBD543F202100023154A088581F80C
S31500002F002A3092F83C309B06FBD503200523114955
S31500002F1081F81C0115490120116282F8263092F8C9
S31500002F202630116A54F82330C1F30261CB402B607E
S31500002F304FF4254382F8300082F85200A2F8FE339F
S31500002F40F8BD80F8801440F2C44000F04DF8C5E7A3
S31500002F5000E0014000C00140080000200070004071
S31500002F60002D310100C2EB0B5C0300202112012071
S31500002F7000127A0000366E0138B50025134C012187
S31500002F80C82084F8285000F02FF884F8245094F8CC
S31500002F902430002BFBD194F824300C4A43F0020372
S31500002FA084F8243092F82430C3F340049B07F9D404
S31500002FB0012082F8224000F0E7F8054B012083F853
S31500002FC0BB44BDE8384000F0AFB800BF0030084051
S31500002FD000E00140704700BF00BEFEE7A0F101001F
S31500002FE00028FBD1704700BF10B54FF47A72164C1B
S31500002FF0164B24684FF0000EB3FBF4FC4FF0FF3382
S3150000300000FB01F1A1FB020483427EEB040407D31B
S31500003010B0FBFCF0800880B1BDE81040FFF7DEBFD2
S315000030204FEA8C0CB1FBFCF1A1FB02128B427EEB4A
S31500003030020203D308460028EED110BD1846BDE8AB
S315000030401040FFF7CBBF00BF5C03002000CA9A3BCD
S3150000305070B500240A4B0B4EB3F84051ADB225FAB9
S3150000306004F3DB07E0B203D556F8243003B19847E2
S315000030700134102CF3D1024BA3F8305170BD00BFC0
S31500003080006000409001002030B56FF0FF0585B06C
S31500003090032000F079F84FF0FF311F4C1F482246FD
S315000030A0856400230125CDE90111039104F1C00EC9
S315000030B032F8020F590960B104A800EB810151F8FA
S315000030C00C0C03F01F0C05FA0CFC20EA0C0041F86E
S315000030D00C0C724503F10103EAD10199104B0F4A1A
S315000030E003201167C3F8801202995167C3F884124E
S315000030F003999167C3F8881200F016F8002309486F
S3150000310003F1C00234F8021F0133602B40F822108D
S31500003110F6D105B030BD00BF563C0000008000402F
S3150000312000E100E000600040EFF31081012383F32B
S315000031301088124B33F8102092B22AB133F81020BF
S31500003140013A92B223F8102033F810309BB293B9AB
S315000031500B4A10B4B2F8FE330A4C9BB234F8100096
S3150000316043F4254323EA0003A2F8FE3381F31088D3
S315000031705DF8044B704781F31088704754030020B4
S3150000318000E00140603D000030B4EFF31081012300
S3150000319083F310880E4A32F810309BB26BB90D4C8F
S315000031A00D4DB4F8FE3335F810C09BB243EA0C035C
S315000031B043F425439BB2A4F8FE3332F810300133B2
S315000031C09BB222F8103081F3108830BC704700BFE4
S315000031D05403002000E00140603D000000BE70473F
S315000031E008B500F003F8FEF775FEFEE74FF470022F
S315000031F070B5254B254CC3F8882000209C60FEF74F
S315000032005DFEFFF731FE0120FEF758FE2368A3F5A9
S31500003210806383F30A881E481E4A0021121A00F0B2
S3150000322054F81D481D4A1E49121A00F041F81D4D5A
S315000032301D4B5B1B002B07DD00249E1055F8043B3D
S3150000324001349847A642F9DCFFF7FAFDFFF794FE32
S315000032500320FFF799FF00234FF6FF70134903F190
S3150000326008020133092B21F81200F8D10320FFF7D9
S315000032705BFF0220FEF722FEFFF706FFBDE8704067
S315000032800020FFF7A7BE00BF00ED00E00000000031
S315000032902800002060030020000000200800002015
S315000032A06C3D00000000002004000020000D0840D6
S315000032B00A44431E914200D1704710B511F8014BE4
S315000032C0914203F8014FF9D110BD024403469342DF
S315000032D000D1704703F8011BF9E7FFFF4275696CDF
S315000032E07420776974682052656E65736173204136
S315000032F06476616E63656420466C657869626C65A8
S3150000330020536F667477617265205061636B6167E5
S31500003310652076657273696F6E20342E352E300007
S31500003320342E352E3000000000000504F8B500BF2D
S31500003330F8BC08BC9E467047F8B500BFF8BC08BC90
S315000033409E467047000000000000000000000000DC
S3150000335000000000000000F800000000000000333C
S315000033603000000000100C06100C060000000000E3
S315000033700000000040C07840C0784000043F0404CC
S315000033803F040400007088FC08300000001820FF8D
S31500003390211E0000F008F000E018000000211C03C8
S315000033A01E211E0000F00888700000001E21232444
S315000033B01927211010160E00000000000000000062
S315000033C000000000000000E01804020000000007F2
S315000033D01820400000020418E000000000402018F9
S315000033E007000000404080F0804040000202010FCC
S315000033F001020200000000F0000000000101011FB0
S3150000340001010100000000000000000080B0700013
S3150000341000000000000000000000000000010101A3
S315000034200101010100000000000000000030300032
S31500003430000000000000000080601804006018060C
S315000034400100000000E010080810E000000F102046
S3150000345020100F00001010F8000000000020203F90
S31500003460202000000070080808887000003028241A
S3150000347022213000003008888848300000182020BB
S3150000348020110E000000C02010F8000000070424E0
S31500003490243F240000F80888880808000019212025
S315000034A020110E0000E0108888180000000F11207F
S315000034B020110E0000380808C83808000000003F38
S315000034C0000000000070880808887000001C222197
S315000034D021221C0000E010080810E0000000312244
S315000034E022110F00000000C0C000000000000030E4
S315000034F03000000000000080000000000000806036
S3150000350000000000000080402010080000010204B6
S31500003510081020004040404040404000040404049D
S315000035200404040000081020408000000020100859
S3150000353004020100007048080808F000000000308E
S3150000354036010000C030C828E810E000071827241C
S3150000355023140B000000C038E0000000203C2302CA
S315000035600227382008F8888888700000203F20202D
S3150000357020110E00C030080808083800071820205F
S315000035802010080008F808080810E000203F202056
S3150000359020100F0008F88888E8081000203F202037
S315000035A02320180008F88888E8081000203F20002B
S315000035B003000000C0300808083800000718202063
S315000035C0221E020008F808000008F808203F210122
S315000035D001213F20000808F8080800000020203FCD
S315000035E02020000000000808F8080800C08080803D
S315000035F07F00000008F888C028180800203F200136
S315000036002638200008F8080000000000203F20208F
S315000036102020300008F8F800F8F80800203F003FA6
S31500003620003F200008F830C00008F808203F2000BE
S3150000363007183F00E01008080810E0000F102020CF
S3150000364020100F0008F808080808F000203F2101A4
S3150000365001010000E01008080810E0000F182424FB
S3150000366038504F0008F8888888887000203F20006E
S31500003670030C302000708808080838000038202124
S3150000368021221C00180808F8080818000000203F2E
S315000036902000000008F808000008F808001F202095
S315000036A020201F000878880000C838080000073866
S315000036B00E010000F80800F80008F800033C0700B7
S315000036C0073C0300081868808068180820302C031F
S315000036D0032C30200838C800C83808000000203FF6
S315000036E02000000010080808C838080020382621E5
S315000036F020201800000000FE020202000000007FE9
S3150000370040404000000C30C00000000000000001F6
S315000037100638C00000020202FE00000000404040E1
S315000037207F00000000000402020204000000000006
S315000037300000000000000000000000008080808083
S31500003740808080800002020400000000000000006B
S315000037500000000000008080808000000019242204
S3150000376022223F2008F8008080000000003F112040
S3150000377020110E000000008080800000000E112045
S3150000378020201100000000808088F800000E112023
S3150000379020103F200000808080800000001F222231
S315000037A022221300008080F0888888180020203F9D
S315000037B0202000000000808080808000006B9494B0
S315000037C09493600008F8008080800000203F21006C
S315000037D000203F2000809898000000000020203F35
S315000037E020200000000000809898000000C0808023
S315000037F0807F000008F8000080808000203F2402BF
S315000038002D302000000808F8000000000020203FAE
S31500003810202000008080808080808000203F200063
S315000038203F20003F8080008080800000203F2100F4
S3150000383000203F200000808080800000001F2020A4
S3150000384020201F00808000808000000080FFA120D3
S3150000385020110E000000008080808000000E1120E4
S3150000386020A0FF80808080008080800020203F2173
S315000038702000010000008080808080000033242426
S3150000388024241900008080E0808000000000001FD2
S31500003890202000008080000000808000001F202083
S315000038A020103F20808080000080808000010E3044
S315000038B00806010080800080008080800F300C03A5
S315000038C00C300F0000808000808080000020312EA8
S315000038D00E312000808080000080808080818E7084
S315000038E01806010000808080808080000021302C36
S315000038F02221300000000000807C0202000000004F
S31500003900003F404000000000FF00000000000000F3
S31500003910FF0000000002027C800000000040403FE3
S31500003920000000000006010102020404000000007D
S31500003930000000004653505F535543434553532000
S315000039403D3D2065727200002E2E2F7372632F612B
S3150000395064632F6273705F6C696768742E6300FF1F
S315000039604144435F496E697400FFFFFF2E2E2F739B
S3150000397072632F6164632F666972655F73656E7328
S315000039806F722E6300FFFFFF466972655F41444315
S315000039905F496E697400FFFF536D6F3A00000000C7
S315000039A0466972653A000000543A00004320483ADE
S315000039B00000000050756D703A0000004C696768A1
S315000039C0743A00FF4F4E20004F4646002500000087
S315000039D02D2D00FFCC000020303B0000183D0000DC
S315000039E000000000000000DF02FF000025150000B7
S315000039F000000000F8390000000102000000DFDFCF
S31500003A00FFFFFFFF0E0400000000000000000000A2
S31500003A100000000000000018020000000000010085
S31500003A20030000000080000000FFDF00000000002F
S31500003A3000000000383A00000033000100000001D9
S31500003A400200000024F4000005000000127A0000C5
S31500003A5006FFDF000000000000000000603A0000E2
S31500003A60000001000000000000000000000000004F
S31500003A700000000000000000000000000000000040
S31500003A800000FFFFDFDF0000000000000000000074
S31500003A900200000024F4000005000000127A000075
S31500003AA007FFDF000000000000000000B03A000041
S31500003AB001000000000000000000000000000000FF
S31500003AC000000000000000000000000000000000F0
S31500003AD00000FFFFDFDF0000000000000000000024
S31500003AE00200000024F4000005000000127A000025
S31500003AF008FFDF000000000000000000003B00009F
S31500003B0001000100000000000000000000000000AD
S31500003B10000000000000000000000000000000009F
S31500003B200000FFFFDFDF00000000000000000000D3
S31500003B3024000000383B0000008000000100000067
S31500003B40008000000200000000800000030000006A
S31500003B501000000004000000008000000A000000C1
S31500003B60100000000E000000100000000F00000012
S31500003B700000010008010000450000000C010000E3
S31500003B80450000000D0100000500000003020000D2
S31500003B900500000004020000050000000902000004
S31500003BA0050000000E0200000000010000030000F6
S31500003BB00500000005040000100000000E040000CF
S31500003BC0100000000F0400000000010100050000C5
S31500003BD00000010101050000040000000B050000C3
S31500003BE0040000000C0500000000010300060000B0
S31500003BF004000000010600000400000002060000A8
S31500003C000000010303060000000001030406000093
S31500003C100000010305060000040000000C06000079
S31500003C20040000000F060000040000000507000065
S31500003C301000000000080000040000000108000059
S31500003C400400000002080000050000000109000051
S31500003C5005000000080900006001000000000000E7
S31500003C60000000000000000000000000000000004E
S31500003C70000000000000000000000000000000003E
S31500003C80000000000000000000000000000000002E
S31500003C90000000000000000000000000000000001E
S31500003CA0000000000000000000000000000000000E
S31500003CB000000000000000000000000000000000FE
S31500003CC000000000000000000000000000000000EE
S31500003CD000000000000000000000000000000000DE
S31500003CE000000000000000000000000000000000CE
S31500003CF000000000000000000000000000000000BE
S31500003D0000000000000000000000000000000000AD
S31500003D100000000000000000C1210000E11E0000BC
S31500003D20D5210000E1210000A51F0000F91F0000B9
S31500003D30ED1E0000411F0000611F00008D1F0000E6
S31500003D40DD1F0000111F0000251F000002040304F0
S31500003D500404FFFF0A0900000A0900003F0B0000E7
S31100003D6001000200080010000000000036
S30D00003D6C25020000010200001F
S3150100A100FFFFFFFFFFFFFFFFFFFFFFFFFFFFFFFF58
S3090100A110FFFFFFFF48
S3090100A134FFFFFFFF24
S3150100A200FFFDFFFFFFFFFFFFFFFFFFFFFFFFFFFF59
S3150100A210FFFFFFFFFFFFFFFFFFFFFFFFFFFFFFFF47
S3150100A220FFFFFFFFFFFFFFFFFFFFFFFFFFFFFFFF37
S3150100A230FFFFFFFFFFFFFFFFFFFFFFFFFFFFFFFF27
S3150100A240FFFFFFFFFFFFFFFFFFFFFFFFFFFFFFFF17
S3150100A250FFFFFFFFFFFFFFFFFFFFFFFFFFFFFFFF07
S3150100A260FFFFFFFFFFFFFFFFFFFFFFFFFFFFFFFFF7
S3150100A270FFFFFFFFFFFFFFFFFFFFFFFFFFFFFFFFE7
S3150100A280F8F8FFFFFFFFFFFFFFFFFFFFFFFFFFFFE5
S3150100A290FFFFFFFFFFFFFFFFFFFFFFFFFFFFFFFFC7
S3150100A2A0FFFFFFFFFFFFFFFFFFFFFFFFFFFFFFFFB7
S3150100A2B0FFFFFFFFFFFFFFFFFFFFFFFFFFFFFFFFA7
S3150100A2C0FFFFFFFFFFFFFFFFFFFFFFFFFFFFFFFF97
S705000031E1E8
